:020000040800F2
:1000000050050020D50000082B0E000861060008EE
:1000100000000000000000000000000000000000E0
:10002000000000000000000000000000C90E0008F1
:100030000000000000000000A50E0008C10F00082D
:100040000501000805010008050100080501000878
:100050000501000805010008050100087D050008EC
:100060000000000005010008050100080501000866
:100070000501000805010008050100080000000056
:1000800041100008050100080000000005010008FB
:100090000501000805010008050100080501000828
:1000A0000501000805010008050100080501000818
:1000B0000501000800000000000000000501000824
:1000C0000348854600F05CF800480047FF1100082F
:1000D000500500200C4880F308880C480168090E80
:1000E0000B4A914205D10B480B4901600B480C4962
:1000F00001600C4880470C480047FEE7FEE7FEE73A
:10010000FEE7FEE7FEE700005005002004000000C7
:100110001F00000018100240010000000000014014
:1001200000000000C50F0008C100000830B50B46F4
:10013000014600202022012409E00D46D5409D42C1
:1001400005D31D469540491B254695404019154647
:10015000521E002DF1DC30BD70B50024254600286C
:1001600001DA01244042002901DA01254942FFF762
:10017000DDFFAC4200D04042002C00D0494270BDAF
:10018000064C0125064E05E0E36807CC2B430C3CEA
:1001900098471034B442F7D3FFF796FF1C2F00089E
:1001A0003C2F000870B58C180578401C6B075B0F5E
:1001B00001D10378401C2A1106D10278401C03E0CB
:1001C00006780E70401C491C5B1EF9D12B0705D424
:1001D0000023521E0DD40B70491CFAE70378401C13
:1001E000CB1A921C03E01D780D70491C5B1C521E3B
:1001F000F9D5A142D8D3002070BD00008AB014A266
:10020000536891681068D268079309920891069024
:100210000020059000BF002418E005A906A8005D95
:100220003F22520169230093019203910290FF2320
:1002300014334B2278210A4800F0E5FB601CC4B25D
:100240000E2C00D30024322000F06BFFE5E7000005
:100250001E22262A322E2A262A2E322A241E000068
:10026000140100200EB51F20C043A8498882A8A011
:1002700010210091FF2341330A22019102903C2179
:10028000A24800F087FD1F20C002A0498882A6A0D6
:1002900010210091FF23413323220191029041213B
:1002A0009A4800F077FDA34898498882A2A01021BF
:1002B0000091FF234133232201910290AA21934808
:1002C00000F068FD3F204001904988829DA01021E8
:1002D0000091FF2341335222019102900F218B485C
:1002E00000F058FD3F204001032169223223009293
:1002F000019102904B220A21844800F036FA3F20F7
:10030000400103215822442300920191029032219E
:100310007E4800F0D5F93F204001032158225223A6
:100320000092019102904B21784800F0C9F987A012
:1003300010210091FF234133522201910290552157
:10034000724800F027FD3F20400103216922FF236E
:1003500014330092019102904B2278216B4800F0F7
:1003600004FA3F20400103216922FF233C3300921D
:10037000019102904B22FF211931644800F0F5F9F8
:1003800074A010210091FF23413352220191029069
:10039000FF2121315D4800F0FDFC1F205B49888270
:1003A00003218C223C230092019102905B2219468A
:1003B000564800F085F91F2003218C224423009227
:1003C000019102903C21514800F07AF91F2003214D
:1003D0008C2252230092019102904B214B4800F055
:1003E0006FF95DA010210091FF2341338522019117
:1003F00002905521454800F0CDFC1F2003219B228F
:10040000FF2314330092019102907D2278213F480E
:1004100000F0ABF91F2003219B22FF233C33009205
:10042000019102907D22FF211931384800F09DF999
:100430004BA010210091FF234133852201910290AE
:10044000FF212131314800F0A5FC0020C0432F4995
:10045000888244A010210091FF234133DA220191C8
:1004600002903C21294800F095FC3F20400127499B
:1004700088823EA010210091FF234133DA220191AE
:1004800002907821214800F085FC3F204001384946
:1004900014223C23009201910290DA228A211B4807
:1004A00000F097FB33A010210091FF234133DA22A3
:1004B00001910290A021154800F06CFC3F20400102
:1004C0002D491E227023009201910290D222B42164
:1004D0000E4800F07EFB3F204001032119223C23FF
:1004E000009201910290E622DC21084800F08EF98A
:1004F0003F204001002119223C23009201910290EB
:10050000E622DC21014800F0C7FA0EBD14010020EC
:10051000414320564F4C54414745202020494E50DE
:100520005554204D4F444500323030567E323430E1
:1005300056000000FF070000504152414C4C454C12
:1005400000000000414E4731000000003638644290
:1005500000000000434831003635644200000000CE
:100560004348320054454D503A00000032380000F4
:100570002017000843000000B016000810B5FF2047
:10058000013000F017F800280AD0FF20013000F0F9
:100590000BF804480068002802D002480068804731
:1005A00010BD00004C010020014948617047000067
:1005B0000004014001460020044A52690A40002A12
:1005C00001D0012000E0002070470000000401403D
:1005D000F0B50A4600210023002400BF3DE00125BC
:1005E0008D402B4615681D402C469C4234D1157910
:1005F000012D02D01579022D16D185684F000326F2
:10060000BE40B543856055794E00B5408668354398
:100610008560858801268E40B543858085889679DA
:100620008E40B6B23543858005684F000326BE4034
:10063000B543056015794E00B54006683543056041
:10064000C5684F000326BE40B543C560D5794E004E
:10065000B540C6683543C560491C1029BFD3F0BDFD
:10066000704770B5FFB0A1B004466568002211461E
:10067000204600F08EFA204600F0CEFB002618E05F
:10068000002009E0E18A09126A461154A27D6B46F6
:10069000411C5A54811C88B2298849008142F1DCEE
:1006A000298849040A0C6946236920689847701C08
:1006B00086B26888B042E3DC00207FB021B070BD14
:1006C000FFB585B00F4615460E9E0898C01B80B238
:1006D0000490701B80B2039000242DE00398002842
:1006E0000CD1311989B2109800910190281982B269
:1006F0003946089B059800F0F0F81BE004980028A4
:100700000CD11098009601900898001983B23819FE
:1007100081B22A46059800F0E0F80BE0311989B261
:10072000109800910190281982B23946089B0598CB
:1007300000F0D3F8601CC4B20F988442CEDB0020D6
:1007400009B0F0BDF8B505460E4617461C463A46B8
:100750003146284600F01DFA284600F05DFB214690
:10076000284600F04CFB0020F8BDFFB583B00CAD6F
:10077000E0CD049881190698801B814204DC05981D
:100780008019A91B884203DD0020C04307B0F0BDDB
:10079000002437E001210598001980B26A4683C21F
:1007A0000598001982B2069B04990398FFF788FF09
:1007B00001200297009501900498001983B20498D3
:1007C000001981B2059A0398FFF77AFF0121281BCF
:1007D00080B26A4683C2281B82B2069B04990398A2
:1007E000FFF76EFF01200297009501900698001B0D
:1007F00083B20698001B81B2059A0398FFF760FF49
:10080000601CC4B2B442C5DB0020BFE7FFB585B0B1
:100810000C4615461F46059840680490E119049857
:10082000008881420ADC0E98281A07D404980088B0
:10083000A04203DB04984088A84203DA0020C043AA
:1008400009B0F0BD002634E00122A91989B2109840
:10085000019200910290E01983B2A81982B2214658
:100860000598FFF72DFF01220E98281A80B21099E3
:10087000019202910090E019801B83B2E019801B65
:1008800081B22A460598FFF71BFF01220E98281A0D
:10089000801980B21099019202910090E01983B200
:1008A000A81982B2A01981B20598FFF709FF701C40
:1008B000C6B20F988642C7DB0E9AAA1A92B20F9957
:1008C0001098009201910290E01983B22A462146C5
:1008D0000598FFF7F5FE0020B2E7FFB587B00020CE
:1008E0000590049008990A98451A09991098461A93
:1008F0000898029009980190002D01DD012706E07B
:10090000002D01D1002702E00027FF436D42002E99
:1009100002DD0120039008E0002E02D100200390A8
:1009200003E00020C04303907642B54201DD2C462F
:1009300000E034460020069024E0019882B202983C
:1009400081B2119B0798FFF7FDFE059840190590AD
:100950000498801904900598A04205DD0598001BB5
:1009600005900298C01902900498A04206DD0498F0
:10097000001B049003990198401801900698401CB0
:1009800080B20690611C06988842D6DD00200BB02C
:10099000F0BDFFB5FFB0A4B005460E4617460020D7
:1009A000A29000240AE0AD98001202A90855AD9863
:1009B000C1B202AA601C1154A01C84B268680088ED
:1009C0004000A042EFDCA698801B401C80B2A290A1
:1009D0003C4611E022463146284600F0DAF8284627
:1009E00000F01AFAA2984004020C2868019002A9AB
:1009F0002B699847601C84B2AC988442EADD0020E1
:100A00007FB028B0F0BDFFB583B00E4617460F9DEE
:100A10000699891B0E9A514308466421FFF79CFBF7
:100A2000801984B22888B04201DD288800E0304671
:100A30002880782C01D1E01C84B2FF20143084423D
:100A400001D1E01E84B20E98642801DD642000E02C
:100A50000E980E902888A0420DDD00210C98C01E33
:100A600080B2019100902B88F81C82B22146039835
:100A7000FFF78FFF0CE00C98C01E80B20D9901911A
:100A80000090F81C82B2298823460398FFF781FF63
:100A90002C80002007B0F0BDFFB587B00C4617468C
:100AA0001E46109949420A22514308463146FFF733
:100AB00053FB00B206900699614308460A21FFF7EE
:100AC0004BFB381A05901199714308466421FFF7D2
:100AD00043FB80B20490002519E06119069A514346
:100AE00008460A21FFF738FB0599401880B20390A9
:100AF00001221299019202910090601983B260194B
:100B000081B23A460798FFF7DBFD681C85B204986E
:100B10008542E2DB00200BB0F0BD10B504466368EF
:100B2000997AA268206890470021E268206890477F
:100B30000021E2682068904763681B885B1E1B04E5
:100B4000190EE2682068904763681B785B1ED9B273
:100B5000E268206890476368197BA2682068904724
:100B60000021E268206890470021E26820689047F1
:100B700063685B885B1E1B04190EE268206890475F
:100B800063689B785B1ED9B2E268206890470020BA
:100B900010BD70B504460D4616466368997AA26882
:100BA000206890472912E26820689047E9B2E2681D
:100BB000206890476368197BA268206890473112CB
:100BC000E26820689047F1B2E26820689047002010
:100BD00070BDFFB585B004460E461546049500204D
:100BE0000390A08A0190606800901098A08200276E
:100BF00038E00F98C05D0290002003902CE0802127
:100C000002980840002805D0A38A2A46314620468B
:100C1000FFF798FD02984006000E0290681C85B20E
:100C200000984088A84203DA0020C04309B0F0BD14
:100C30000498291A0E9881420ADB701C86B2049D22
:100C400000980088B04202DA0020C043EEE706E0D8
:100C50000398401C80B2039003980828CFDB00BFA4
:100C6000781C87B208988742C3DB0198A0820020D5
:100C7000DCE70000FFB587B016461F46109C0496BF
:100C80002046E217520F1218D210E3175B0F1B1801
:100C9000DB10DB000194E31A01D0012300E0002304
:100CA000D2182146E30F5B185B105A43D2B203926D
:100CB00007984068029038462038C7B200255EE0A9
:100CC0000C2C06D10C2078432F494018405D06902B
:100CD00014E0102C05D138012C494018405D0690D5
:100CE0000CE0182C06D12420784329494018405D97
:100CF000069003E00020C0430BB0F0BD002005903B
:100D000037E0802106980840002806D00798838A9B
:100D100032460899FFF716FD08E01198002805D122
:100D20000798C38A32460899FFF70CFD06984006DB
:100D3000000E0690701C86B202984088B04202DC19
:100D40000020C043D8E70498301AA0420DD1049E79
:100D50000898401C80B20890029801880898814247
:100D600002DC0020C043C7E706E00598401CC0B283
:100D7000059005980828C4DB00BF681CC5B203981D
:100D800085429DDB0020B7E75C170008D01B0008F8
:100D9000C0210008FFB583B00C4616460E9F0D9D7E
:100DA000E0B202900698001980B206900C98801963
:100DB00080B20C9019E00698844202DB029C701904
:100DC00086B20C98864200DB15E001200095019068
:100DD0003B78324621460398FFF74CFF2846E90F3F
:100DE0000918491009198CB27F1C38787E2802DC5A
:100DF00038782028DFDA00BF002007B0F0BD70B5DA
:100E000004460D462912E26820689047E9B2E2687C
:100E100020689047002070BD10B504466368197AB9
:100E2000A26820689047002010BD704710B50028C8
:100E300019DA1A4A03071B0F083B9B089B00D2587C
:100E40008307DC0EFF23A3409A438B071B0E840706
:100E5000E40EA3401A43114B0407240F083CA408D6
:100E6000A4001A5118E00E4A03231B02D21883086B
:100E70009B00D2588307DC0EFF23A3409A438B07C5
:100E80001B0E8407E40EA3401A43054B03242402DF
:100E90001B198408A4001A5110BD00001CED00E0CD
:100EA00000E100E070470000002905D0054A5269C2
:100EB0000243044B5A6104E0024A52698243014BE7
:100EC0005A61704700100240704700000CB50020C6
:100ED000019000902F480068012108432D490860C7
:100EE00000BF2C4800680221084000900198401C77
:100EF00001900098002804D1052109030198884237
:100F0000EFD12448006802210840002802D00120C7
:100F1000009001E0002000900098012839D11F20A6
:100F20001D4908601B4840681A49486008464068E7
:100F30004860084640687F21C903884315494860D6
:100F4000084640683921C9030843124948600846E9
:100F500000680121090608430E49086000BF0D48DA
:100F600000680121490608400028F8D00948406877
:100F7000800880000749486008464068022108430D
:100F80000449486000BF034840680C210840082815
:100F9000F9D10CBD0010024000200240042806D107
:100FA0000649096904221143044A116105E0034915
:100FB000096904229143014A1161704700E000E091
:100FC0007047000010B51B4800680121084319490B
:100FD00008600846406818490840164948600846B5
:100FE0000068164908401349086008460068012156
:100FF000890488430F490860084640683F21090476
:1010000088430C4948600846C06A00090001C8626C
:101010000846006BFF21543188430649086308469F
:10102000406B40084000486300208860FFF74EFF97
:1010300010BD0000001002400CB8FFF8FFFFF6FEE4
:1010400010B502210C4800F020F8002813D002212E
:10105000094800F017F80948026840680021521C4E
:10106000484106490A60486005480068002802D0E7
:1010700003480068804710BD000400404001002084
:1010800038010020CA430282704730B50246002072
:1010900000230024158A0D402B4695890D402C46CF
:1010A000002B03D0002C01D0012000E0002030BD37
:1010B00002E008C8121F08C1002AFAD17047704721
:1010C000002001E001C1121F002AFBD17047FEB5CC
:1010D00007460C4615461E4601213846FFF7E4FE3A
:1010E0000095002168460171C67169462046FFF7E8
:1010F0006FFAFEBD7CB506460C461546012130460A
:10110000FFF7D2FE0095012168460171002181712F
:10111000032141710121C17169462046FFF758FA48
:101120007CBD10B50446204600F002F810BD00005A
:10113000002100BF15E00C4A12680C4B5A610022D6
:101140001A619A6101221A6100BF084A12690123DB
:101150001B041A40002AF8D00022044B1A619A613D
:10116000491C8142E7D370473401002000E000E0D1
:1011700010B50420C043FFF711FF0321081FFFF73C
:1011800055FE08490888C117490F0918C910064AB1
:1011900011601046008880B27D21C9004843034990
:1011A000086010BD2C010020300100203401002017
:1011B00070B50446002C02D11520C04370BD002537
:1011C000207B002804D1204607C8FFF793FF04E0E6
:1011D0000123204607C8FFF77AFF2846EEE770B5DF
:1011E00004460D46002C02D11520C04370BD0026D8
:1011F0002A46A168606800F010F83046F6E700F073
:1012000008F800F04DFAFFF72DF8FEF7F7FF00BFE2
:10121000FEE710B5FFF7ACFF10BD002A01D08161D9
:1012200000E00185704770B50546002D02D11520FC
:10123000C04370BD2C682046FFF7BAFF204614302B
:10124000FFF7B6FF20462830FFF7B2FF20463C30BC
:10125000FFF7AEFF01212046FFF7C1FF0121204625
:101260001430FFF7BCFF012120462830FFF7B7FFFD
:10127000012120463C30FFF7B2FF20466430FFF7E3
:1012800097FF20467830FFF793FF20468C30FFF71A
:101290008FFF2046A030FFF78BFF2046B430FFF7CA
:1012A00087FF2046C830FFF783FF2046DC30FFF77A
:1012B0007FFF2046F030FFF77BFF0021204664309F
:1012C000FFF78DFF002120467830FFF788FF0021CF
:1012D00020468C30FFF783FF00212046A030FFF727
:1012E0007EFF00212046B430FFF779FF0021204621
:1012F000C830FFF774FF00212046DC30FFF76FFF96
:1013000000212046F030FFF76AFF3621204600F02A
:101310007CF9A021204600F09DF93A21204600F0FA
:1013200074F90521204600F095F9B221204600F01D
:101330006CF90C21204600F08DF90C21204600F0BC
:1013400089F90021204600F085F93321204600F07C
:1013500081F93321204600F07DF9B721204600F0C5
:1013600054F93521204600F075F9BB21204600F0E4
:101370004CF91C21204600F06DF9C021204600F0F8
:1013800044F92C21204600F065F9C221204600F0E6
:101390003CF90121204600F05DF9C321204600F010
:1013A00034F90B21204600F055F9C421204600F005
:1013B0002CF92021204600F04DF9C621204600F0EE
:1013C00024F90F21204600F045F9D021204600F0F5
:1013D0001CF9A421204600F03DF9A121204600F08F
:1013E00039F9E021204600F010F9D021204600F024
:1013F00031F90621204600F02DF90B21204600F09E
:1014000029F90A21204600F025F90921204600F09B
:1014100021F90621204600F01DF92F21204600F079
:1014200019F94421204600F015F94521204600F025
:1014300011F91821204600F00DF91421204600F082
:1014400009F91421204600F005F92721204600F073
:1014500001F92D21204600F0FDF8E121204600F0A1
:10146000D4F8D021204600F0F5F80621204600F0FF
:10147000F1F80B21204600F0EDF80A21204600F09B
:10148000E9F80921204600F0E5F80521204600F0A2
:10149000E1F82E21204600F0DDF84321204600F03F
:1014A000D9F84521204600F0D5F81821204600F053
:1014B000D1F81421204600F0CDF81421204600F088
:1014C000C9F82721204600F0C5F82D21204600F05C
:1014D000C1F82121204600F098F81121204600F0A3
:1014E00094F82921204600F090F82846FFF715FBD4
:1014F0002846FFF7B6F800209BE6000030B502460C
:10150000002A02D11520C04330BD254880690F252F
:101510002D03A843224DA8612148203000890F25C2
:101520002D03A8431E4D203528811E4880690F25B4
:10153000AD01A8431B4DA8611A48203000890F2532
:10154000AD01A843174D203528810B071B0F0F2035
:1015500088430446124880691D032843104DA86142
:101560000F4820300089250328430D4D2035288160
:10157000F02008400311F0200840F02585432C118D
:10158000084880699D012843064DA8610548203020
:101590000089A5012843034D203528810020B3E7A9
:1015A0000004004800080048F8B504460E461746F7
:1015B000002C02D11520C043F8BD00212046FFF7C2
:1015C0000EFE012120462830FFF709FE00250FE01E
:1015D000002120463C30FFF702FE715D2046FFF7F8
:1015E0008DFF012120463C30FFF7F9FD681C85B2D4
:1015F000BD42EDDB012120463C30FFF7F0FD01212B
:101600002046FFF7ECFD0020D6E770B504460D46F6
:10161000002C02D11520C04370BD00212046FFF7E9
:10162000DEFD002120462830FFF7D9FD00212046AD
:101630003C30FFF7D4FD29462046FFF75FFF01212C
:1016400020463C30FFF7CBFD01212046FFF7C7FDC8
:101650000020E1E770B504460D46002C02D11520AC
:10166000C04370BD00212046FFF7B9FD012120468F
:101670002830FFF7B4FD002120463C30FFF7AFFDD6
:1016800029462046FFF73AFF012120463C30FFF76C
:10169000A6FD01212046FFF7A2FD0020E1E70000A2
:1016A00010B50248FFF7BFFD10BD00001401002077
:1016B000000000000000000000000000000000002A
:1016C0000000000000000000007C000000FE1C0084
:1016D00001C33E000183370001F3330000FF230004
:1016E000000F63000007E30000FCFE0001FCFC00AB
:1016F000031F8000031BC0000233FC0003333E00C5
:1017000003B3060001F3060000E1DC000000F8006E
:1017100000000000000000000000000000000000C9
:1017200000000000000000000000000000000000B9
:1017300000000000000000000000000000000000A9
:10174000000000000000000E000011000011000069
:101750001100000E0000000000000000000000006A
:101760000000000000000000000000003F400000FA
:101770000000000000003000400030004000000089
:1017800009000BC03D000BC03D00090018C02440FB
:101790007FE0224031800000180024C01B000D8033
:1017A0003240018003801C4027401C8007400040DD
:1017B00010006000000000000000000000000000B9
:1017C00000001F80204040200000402020401F805B
:1017D00000000000090006001F800600090000004C
:1017E000040004003F8004000400000000100060BA
:1017F00000000000000000000400040004000400D9
:101800000400000000000040000000000000000094
:10181000002001C006003800400000001F8020406A
:10182000204020401F800000000010403FC00040CA
:101830000000000018C02140224024401840000051
:1018400010802040244024401B80000002000D0036
:1018500011003FC0014000003C802440244024404F
:10186000238000001F802440244034400380000077
:101870003000200027C03800200000001B802440DA
:10188000244024401B8000001C0022C02240224033
:101890001F80000000000000084000000000000061
:1018A00000000000046000000000000000000400D0
:1018B0000A001100208040400900090009000900C9
:1018C0000900000000004040208011000A000400D0
:1018D0001800200023402400180000001F80204032
:1018E000274029401F400000004007C039000F007A
:1018F00001C0004020403FC0244024401B80000025
:101900001F802040204020403080000020403FC009
:10191000204020401F80000020403FC024402E4037
:1019200030C0000020403FC024402E0030000000A6
:101930000F001080204022403380020020403FC032
:10194000040004003FC02040204020403FC0204011
:10195000204000000060202020203FC02000200008
:1019600020403FC024400B0030C0204020403FC0FA
:1019700020400040004000C03FC03C0003C03C008D
:101980003FC0000020403FC00C4023003FC020006B
:101990001F802040204020401F80000020403FC08A
:1019A00024402400180000001F802140214020E036
:1019B0001FA0000020403FC02440260019C0004066
:1019C00018C02440244022403180000030002040D4
:1019D0003FC020403000000020003F800040004019
:1019E0003F80200020003E0001C00700380020009A
:1019F000380007C03C0007C038000000204039C054
:101A0000060039C0204000002000384007C03840A0
:101A100020000000304021C02640384020C0000097
:101A2000000000007FE04020402000000000700027
:101A30000C000380004000000000402040207FE0B8
:101A40000000000000002000400020000000000016
:101A50000010001000100010001000100000000026
:101A6000400000000000000000000280054005402A
:101A700003C0004020003FC0044004400380000039
:101A80000000038004400440064000000000038082
:101A9000044024403FC00040000003800540054052
:101AA00003400000000004401FC0244024402000E8
:101AB000000002E0055005500650042020403FC0C1
:101AC0000440040003C000400000044027C0004060
:101AD0000000000000100010041027E000000000CB
:101AE00020403FC00140070004C004402040204087
:101AF0003FC000400040000007C0040007C00400D1
:101B000003C00000044007C00440040003C00040BC
:101B1000000003800440044003800000041007F02C
:101B2000045004400380000000000380044004507F
:101B300007F00010044007C0024004000400000049
:101B4000000006400540054004C0000000000400FD
:101B50001F80044000400000040007800040044053
:101B600007C000400400070004C001800600040014
:101B7000060001C0070001C006000000044006C0C6
:101B8000010006C0044000000410071004E00180BA
:101B9000060004000000044005C0064004400000A8
:101BA0000000000004007BE0402000000000000076
:101BB0000000FFF000000000000040207BE0040077
:101BC0000000000040008000400020002000400095
:101BD0000000000000000000000000000000000005
:101BE0000000000000001FCC000C000000000000FE
:101BF00000000800300060000800300060000000B5
:101C0000022003FC1E20022003FC1E2002200000F4
:101C100000000E1811043FFF10840C780000000033
:101C20000F0010840F3800C0077818840078000077
:101C300000780F8410C411240E9800E4008400087A
:101C400008006800700000000000000000000000B4
:101C500000000000000007E0181820044002000007
:101C6000000040022004181807E0000000000000F7
:101C70000240024001800FF001800240024000005B
:101C80000080008000800FF800800080008000004D
:101C90000001000D000E0000000000000000000028
:101CA00000000080008000800080008000800080B4
:101CB0000000000C000C000000000000000000000C
:101CC00000000006001800600180060018002000D7
:101CD000000007F0080810041004080807F00000CE
:101CE0000000080408041FFC0004000400000000B9
:101CF00000000E0C10141024104411840E0C00006F
:101D000000000C1810041104110412880C7000005B
:101D1000000000E00320042408241FFC002400002D
:101D200000001F9810841104110410881070000026
:101D3000000007F0088811041104188800700000E2
:101D400000001C00100010FC13001C00100000001C
:101D500000000E3811441084108411440E38000025
:101D600000000700088C10441044088807F00000A9
:101D7000000000000000030C030C00000000000045
:101D8000000000000001010600000000000000004B
:101D90000000008001400220041008081004000028
:101DA0000220022002200220022002200220000045
:101DB0000000100408080410022001400080000008
:101DC00000000E001200100C106C10800F000000BC
:101DD00003E00C1813E4142417C4082807D00000EB
:101DE0000004003C03C41C40074000E4001C000445
:101DF00010041FFC1104110411040E88007000006F
:101E000003E00C1810041004100410081C1000004B
:101E100010041FFC100410041004080807F0000050
:101E200010041FFC1104110417C41004081800004A
:101E300010041FFC1104110017C01000080000005E
:101E400003E00C181004100410441C78004000003B
:101E500010041FFC10840080008010841FFC1004FC
:101E60000000100410041FFC100410040000000007
:101E700000030001100110011FFE100010000000FF
:101E800010041FFC110403801464181C10040000CB
:101E900010041FFC1004000400040004000C0000E7
:101EA00010041FFC1F0000FC1F001FFC100400009A
:101EB00010041FFC0C04030000E010181FFC1000AD
:101EC00007F00808100410041004080807F00000C8
:101ED00010041FFC10841080108010800F00000080
:101EE00007F0081810241024101C080A07F200003C
:101EF00010041FFC1104110011C011300E0C00045D
:101F000000000E1C11041084108410441C380000C2
:101F10001800100010041FFC10041000180000002E
:101F200010001FF810040004000410041FF8100033
:101F300010001E0011E0001C007013801C00100037
:101F40001FC0103C00E01F0000E0103C1FC000005C
:101F50001004180C163401C001C01634180C1004FB
:101F600010001C00130400FC13041C0010000000EF
:101F70000804101C1064108413041C0410180000C2
:101F80000000000000007FFE40024002400200000E
:101F9000000030000C0003800060001C0003000003
:101FA00000004002400240027FFE000000000000EE
:101FB0000000000020004000400040002000000021
:101FC0000001000100010001000100010001000109
:101FD0000000400040002000000000000000000061
:101FE00000000098012401440144014400FC000465
:101FF00010001FFC0088010401040088007000002C
:102000000000007000880104010401040088000041
:102010000000007000880104010411081FFC000486
:10202000000000F8014401440144014400C80000DC
:102030000000010401040FFC110411041100180038
:10204000000000D601290129012901C9010600006B
:1020500010041FFC008401000100010400FC0004C6
:1020600000000104190419FC000400040000000031
:102070000000000300010101190119FE0000000029
:1020800010041FFC0024004001B4010C01040000F6
:102090000000100410041FFC0004000400000000F5
:1020A000010401FC0104010001FC0104010000FC29
:1020B000010401FC008401000100010400FC000493
:1020C000000000F8010401040104010400F800000C
:1020D000010101FF00850104010400880070000077
:1020E00000000070008801040104010501FF0001E7
:1020F0000104010401FC00840104010001800000CE
:10210000000000CC012401240124012401980000D6
:1021100000000100010007F80104010400000000B4
:10212000010001F8000400040004010801FC00049F
:10213000010001800170000C0010016001800100AD
:1021400001F0010C003001C00030010C01F0010071
:1021500000000104018C00740170018C0104000076
:10216000010101810171000E001801600180010070
:1021700000000184010C013401440184010C0000C1
:10218000000000000000000001003EFC4002400290
:102190000000000000000000FFFF00000000000041
:1021A0000000400240023EFC010000000000000070
:1021B00000006000800080004000400020002000FF
:1021C000000000000000000000000000000000000F
:1021D00000000000000000000000000000000000FF
:1021E00000000000000000000000000000000000EF
:1021F0000000000F80380FFE380F8038000000000C
:1022000000000000000000000000000000000100CD
:10221000000600000C00003800003100000600003D
:102220000C0000380000300000000000000000003A
:1022300061800067F807F9800061800061800061BB
:10224000800061800067F807F9800061800000006D
:1022500000000000000001C0E003E0F006300804C8
:1022600018081FFFFE040E080787F00381E0000036
:102270000000000001F000060C00040408060C70C9
:1022800001F9C0000E00003BE000EC18070808044C
:102290000C180003E00000000001E00007F003F864
:1022A00018041C0804170807E1D003C0E00023B09D
:1022B000003C0800200800001000000000000001A1
:1022C00000003100003200001C000000000000008F
:1022D00000000000000000000000000000000000FE
:1022E00000000000000000000000000000000000EE
:1022F0007F0001FFC00780F00C00181000042000D0
:10230000020000000000002000021000040C001871
:102310000780F001FFC0007F000000000000000007
:102320000000000000000000000000004200006605
:1023300000006600003C0000180003FFC000180009
:10234000003C000066000066000042000000000043
:10235000080000080000080000080000080001FF55
:10236000C000080000080000080000080000080085
:1023700000000000000100003100003200001C00DD
:10238000000000000000000000000000000000004D
:102390000000000000000000080000080000080025
:1023A0000008000008000008000008000008000005
:1023B000080000080000000000000000000000000D
:1023C0003800003800003800000000000000000065
:1023D00000000000000000000000000000000000FD
:1023E000000600001C000070000180000E00003894
:1023F0000000C0000700001C0000300000000000CA
:10240000000000007F8001FFE003807006001804D8
:10241000000804000806001803807001FFE0007F38
:10242000800000000000000000000100080100081A
:1024300001000803FFF807FFF8000008000008008B
:10244000000800000000000000000001C03802C0C9
:1024500058040098040118040218040418061C18F3
:1024600003F81801E0F8000000000000000000017F
:10247000C0E003C0F00400080408080408080618B7
:102480000803F41801E7F00001E00000000000007C
:10249000000000000300000D0000110000610000BA
:1024A000810803010807FFF80FFFF8000108000189
:1024B000080000000000000000E007FCD00608084B
:1024C000061008061008061008061838060FF00651
:1024D00007C0000000000000000000003F8001FF76
:1024E000E0038430020818041008041008041008DF
:1024F000071810030FF00007C000000000000000E4
:10250000000003C0000700000600000600F80607F0
:10251000F806180006E000070000060000000000B2
:1025200000000001E1E003F7F0063410041808048D
:102530001808040C08040C0806161803F3F001C16F
:10254000E000000000000000F80003FC3003063843
:102550000402080402080402080404100308F0013D
:10256000FFC0007F0000000000000000000000002D
:102570000000000000000000703800703800703863
:10258000000000000000000000000000000000004B
:10259000000000000000000000000000301A0030C1
:1025A0001C0000000000000000000000000000000F
:1025B00000000000000000080000140000220000DD
:1025C000410000808001004002002004001008004B
:1025D0000800000000000000210000210000210090
:1025E0000021000021000021000021000021000046
:1025F0002100002100000000000000000000080091
:10260000080400100200200100400080800041000A
:102610000022000014000008000000000000000379
:10262000C00004C000040000080038080F38080883
:10263000380810000C300007E00003C00000000064
:10264000000000003F8000FFE0038070020F1006D2
:10265000708804C088048308047F8802C090030146
:102660002000FE400000080000180001F8003E08AD
:1026700001C20007020007E20000FE00001FC800C0
:1026800001F800003800000804000807FFF807FF01
:10269000F8040808040808040808040808061808CC
:1026A00003F41801E7F00001E00000000000000062
:1026B0003F8001FFE003807002001804000804005E
:1026C000080400080400100600200780C000000075
:1026D00004000807FFF807FFF804000804000804D6
:1026E000000804001802001003807001FFE0007F62
:1026F0008000000004000807FFF807FFF80408083E
:10270000040808040808040808043E080400080631
:10271000001801006000000004000807FFF807FF30
:10272000F8040808040800040800040800043E0037
:10273000060000060000018000000000000000000C
:102740003F8001FFE00380700600180400080402C7
:10275000080402080203F00783F0000200000200F0
:1027600004000807FFF807FFF80408080008000045
:10277000080000080000080004080807FFF807FF29
:10278000F80400080000000000000400080400082D
:1027900004000807FFF807FFF80400080400080415
:1027A000000800000000000000000000000600001B
:1027B0000700000104000104000104000307FFFEFC
:1027C00007FFFC04000004000004000004000807E8
:1027D000FFF807FFF8040C08001800003E0004C7CB
:1027E000800503C80600F80400380400180000083B
:1027F00004000807FFF807FFF804000800000800BD
:102800000008000008000008000008000018000090
:102810006000000004000807FFF807800807FC00BC
:10282000007FC00003F80007C00078000780080799
:10283000FFF807FFF804000804000807FFF8070086
:102840000803C00000E000003800001E0000070080
:102850000001C00400F007FFF804000000000000C1
:102860007F8001FFE0038070060018040008040068
:102870000806001803003001FFE0007F8000000020
:1028800004000807FFF807FFF80404080404000424
:102890000400040400040400060C0003F80001F026
:1028A00000000000000000007F8001FFE003807056
:1028B0000600880400880400C806003C03003E01AE
:1028C000FFE6007F8400000004000807FFF807FF10
:1028D000F8040808040800040C00040F00040BC0EE
:1028E0000610F003F03801E00800000800000001C5
:1028F000E0F803F030063010041808041808040C3F
:1029000008040C080206180207F00781E000000026
:102910000180000600000400000400000400080715
:10292000FFF807FFF8040008040000040000060098
:102930000001800004000007FFE007FFF00400181A
:10294000000008000008000008000008000008045B
:10295000001007FFE004000004000006000007E08C
:102960000007FE00041FE00001F80000380001E04D
:10297000043E0007C0000600000400000400000739
:10298000E00007FFC0041FF80007C007F80007FFBA
:1029900080043FF80007C004F800070000040000AE
:1029A00000000004000806001807C07805F1C80000
:1029B0003E00001F800463E80780F806001804004A
:1029C0000800000004000006000007800007E0087F
:1029D000047C08001FF80007F800180804E0080746
:1029E00000000600000400000000000100080600CE
:1029F000380400F80403E8040F08047C0805F00814
:102A000007C0080700180400600000000000000074
:102A100000000000000000000000003FFFFE20005A
:102A2000022000022000022000022000020000001C
:102A300000000000000008000007000000C00000C7
:102A400038000006000001C000003000000E000049
:102A50000100000000000000000020000220000231
:102A60002000022000022000023FFFFE00000000C4
:102A70000000000000000000000000000000000056
:102A800000080000100000300000200000300000AE
:102A9000100000080000000000000000000001001D
:102AA0000001000001000001000001000001000021
:102AB0000100000100000100000100000100000110
:102AC00000000000000000000020000020000010B6
:102AD00000001000000000000000000000000000E6
:102AE000000000000000000000F00019F8001B18B2
:102AF000002208002608002408002410003FF800E7
:102B00001FF800000800001800000004000007FF84
:102B1000F80FFFF000181800100800200800200827
:102B2000003018001FF0000FC0000000000000007F
:102B300007C0001FF0001830002008002008002007
:102B400008003C08001C10000060000000000000AD
:102B50000000000007C0001FF00038180020080027
:102B6000200800200804101007FFF80FFFF00000F5
:102B7000100000000000000000000007C0001FF06F
:102B8000001230002218002208002208003208003B
:102B90001E10000E20000000000000002000002099
:102BA0000800200801FFF803FFF8062008042008A9
:102BB00004200807200003000000000000000000BF
:102BC000000E000E6E001FF30031B10020B1002096
:102BD000B1003191001F13002E1E00200E003000A6
:102BE00000000004000807FFF80FFFF800100800BD
:102BF0002000002000002008003FF8001FF800001F
:102C0000080000000000000000000020080020086C
:102C1000002008063FF8063FF80000080000080002
:102C2000000800000000000000000000000000009C
:102C300003000003002001002001002003063FFEE6
:102C4000063FFC000000000000000000000000043F
:102C5000000807FFF80FFFF8000188000300002FAD
:102C6000C00038F8002038002008000008000000EC
:102C70000000000000000400080400080400080729
:102C8000FFF80FFFF800000800000800000800002F
:102C900000000000002008003FF8003FF800100886
:102CA000002000003FF8003FF8001008002000005E
:102CB0003FF8003FF8000008000000002008003F37
:102CC000F8003FF800100800100000200000200865
:102CD000003FF8001FF8000008000000000000009E
:102CE00007C0000FF0001830003008002008002056
:102CF00008003008001830000FF00007C000000086
:102D0000000000002001003FFF003FFF0010110005
:102D10002009002008002008003038001FF0000FB4
:102D2000C00000000000000007C0001FF0003818BD
:102D3000002008002008002009001011001FFF00DB
:102D40003FFF0000010000000020080020080020D4
:102D500008003FF8003FF8000808001008002008AD
:102D600000200000300000300000000000000000E3
:102D70000000000C78001E18003308002308002112
:102D8000080021880021980030F000386000000021
:102D900000000000200000200000200000FFF003E1
:102DA000FFF8002008002008002008000030000084
:102DB00000000000000000002000003FF0007FF84D
:102DC000000018000008000008002010003FF80074
:102DD0007FF0000010000000000000002000003024
:102DE00000003C00003F800023F0000078000070ED
:102DF000002380003C000030000020000020000084
:102E00003C00003FE00023F80000E0002700003E07
:102E100000003FE00021F80001E0003E000020003B
:102E2000000000002008002008003838003E68003C
:102E300027800003C8002CF8003838002018002034
:102E400008000000000000002000003003003C01EA
:102E5000003F830023EC000070002380003C000052
:102E600020000020000000000000000000000038EA
:102E7000080020380020F80023E8002F88003E08D2
:102E8000003808002018000070000000000000005A
:102E90000000000000000000000000000800001416
:102EA000001FF7FC300006200002000000000000B8
:102EB0000000000000000000000000000000000012
:102EC0000000FFFFFF000000000000000000000005
:102ED000000000000000000000002000023000069A
:102EE0001FF7FC00140000080000000000000000B4
:102EF000000000000000000000000018000060005A
:102F00000040000040000020000010000008000009
:102F10000400000400000C00001000003C2F00081A
:102F20000000002050010000A4010008982F0008B4
:102F30005001002000040000C0100008212A0803EE
:102F4000D3480149140A1102140A11041419060184
:102F50001F1936120412480A1110140A1120140AFB
:102F60001140140A108078B9275914B9275914113F
:102F7000B9DD591499DD544001F0122C122A622B4C
:102F80001420040114200B161B0855041BA915322C
:082F90001AF815B948011600FA
:04000005080000C12E
:00000001FF
